:020000040800F2
:10000000180B002091010008C31100086D100008B2
:10001000C1110008AF0500087515000800000000B8
:10002000000000000000000000000000B9140008FB
:100030007108000800000000B7140008111500083E
:10004000AB010008AB010008AB010008AB010008E0
:10005000AB010008AB010008AB010008AB010008D0
:10006000AB010008AB010008AB010008AB010008C0
:10007000AB010008AB010008AB010008AB010008B0
:10008000AB010008AB010008AB010008AB010008A0
:10009000AB010008AB010008AB010008AB01000890
:1000A000AB010008AB010008AB010008AB01000880
:1000B000AB010008AB010008AB010008AB01000870
:1000C000AB010008AB010008AB010008AB01000860
:1000D000AB010008AB010008AB010008AB01000850
:1000E000AB010008AB010008AB01000800F002F80A
:1000F00000F03FF80AA090E8000C82448344AAF183
:100100000107DA4501D100F034F8AFF2090EBAE880
:100110000F0013F0010F18BFFB1A43F0010318473B
:100120003C2F00005C2F0000103A24BF78C878C133
:10013000FAD8520724BF30C830C144BF04680C60ED
:10014000704700000023002400250026103A28BF35
:1001500078C1FBD8520728BF30C148BF0B60704739
:10016000642900F07180002070471FB51FBD10B5D5
:1001700010BD00F0E2F91146FFF7F7FF01F012FAA7
:1001800000F000FA03B4FFF7F2FF03BC00F008FA36
:100190000948804709480047FEE7FEE7FEE7FEE71B
:1001A000FEE7FEE7FEE7FEE7FEE7FEE70448054957
:1001B000054A064B7047000073150008ED00000863
:1001C00018050020180B0020180700201807002031
:1001D0000FB41CB5074B06AA7B44694600900598EE
:1001E00000F093F90020694600F0A2F91CBC5DF80C
:1001F00014FB00005503000070B5044685690068D3
:10020000C10601D5302600E02026C00707D070BD0A
:10021000D4E9012130469047206A401C20626D1EBF
:10022000F6D570BD70B5044685690078C00707D162
:1002300070BDD4E9012120209047206A401C206233
:100240006D1EF6D570BD00002DE9F0410646002474
:1002500010687529314616A510D0AFF3008000282C
:1002600002DA404213A507E031688A0701D512A5DA
:1002700002E0490704D511A5012401E0AFF3008095
:1002800000210A2206F1240709E0B0FBF2FCB0FBD2
:10029000F2F302FB1C00303078541846491C002849
:1002A000F3D123462A463046BDE8F04100F0CEB8EF
:1002B000000000002D0000002B00000020000000C6
:1002C0002DE9F05F894604464FF0000ADFF824B1BB
:1002D000FB44C0F820A02046E168884700287DD074
:1002E000252806D0D4E901219047206A401C2062CD
:1002F000F1E700255F462046E1688847202806464A
:1003000007DB312E05D2B81910F8200C08B10543CF
:10031000F1E7A80701D525F00405C4F81CA00027C3
:10032000C4F818A02A2E09D0304601F034F938B3A9
:1003300004EB8708303EC8F8186019E059F8041B30
:10034000204604EB87029161E1688847012F064649
:1003500018D1E069002820DA25F020051DE0D8F842
:10036000180000EB800006EB40003038C8F8180099
:100370002046E1688847064601F00DF90028EED1D5
:10038000012F0AD02E2E08D12046E16888477F1C15
:100390000646022F45F02005C4DBA069002803DAD9
:1003A000404245F00105A061E80701D025F01005A5
:1003B000A6B1A6F14100192802D8203645F40065FF
:1003C0004A463146204625604D46FFF7C9FE60B1DA
:1003D000012807D0ED1D25F0070000E007E000F13F
:1003E000080978E705F1040975E730467AE7206ADD
:1003F000BDE8F09F762D00004FF0000200B51346D7
:1004000094469646203922BFA0E80C50A0E80C5034
:10041000B1F12001BFF4F7AF090728BFA0E80C50E5
:1004200048BF0CC05DF804EB890028BF40F8042BDE
:1004300008BF704748BF20F8022B11F0804F18BF4B
:1004400000F8012B70477047704770472DE9F0475F
:100450000D4699469246044600F124080168880634
:1004600004D5E06921F01001216000E00120A842DC
:1004700001DD471B00E00027A1697A1902EB0900A2
:10048000081AA0612078C00602D42046FFF7B4FE07
:10049000002608E0D4E901211AF806009047206AF6
:1004A000401C761C20624E45F4DB2078C0060AD53D
:1004B0002046FFF7A1FE06E0D4E901213020904755
:1004C000206A401C2062381EA7F10107F4DC07E017
:1004D000D4E9012118F805009047206A401C2062E9
:1004E000281EA5F10105F3DC2046FFF79BFE2078CE
:1004F000000602D50220BDE8F0870120FBE70000DE
:1005000001694A1C02610878704700B58FB0CDE9D7
:1005100001310021059105497944CDE903101146C7
:100520006846FFF7CDFE0FB000BD0000E5FFFFFFFE
:100530000A6802F8010B0A607047754600F02CF853
:10054000AE4605006946534620F00700854618B0C0
:1005500020B5FFF72BFEBDE820404FF000064FF01E
:1005600000074FF000084FF0000B21F00701AC46E8
:10057000ACE8C009ACE8C009ACE8C009ACE8C00907
:100580008D46704710B50446AFF300802046BDE8A5
:100590001040FFF7F7BD000000487047B804002086
:1005A00001491820ABBEFEE7260002007047FEE7B7
:1005B00000F00F01000900EB800001EB4000C0B229
:1005C000704700001FB500200290402000900120DD
:1005D0000190022003906946014800F05DF91FBDBB
:1005E000000801400A21B0FBF1F201FB1202B0FB4E
:1005F000F1F042EA0010C0B2704703E00221491C4A
:100600000A29FCD3401EF9D2704710B50446812058
:1006100000F072F800F07F00FFF7CAFFA07183209E
:1006200000F06AF8FFF7C4FF6071852000F064F8FD
:1006300000F03F00FFF7BCFF2071872000F05CF85E
:10064000FFF7B6FFA070892000F056F8FFF7B0FF63
:1006500060708B2000F050F8FFF7AAFFE0708D204B
:1006600000F04AF8FFF7A4FF207010BD10B5094C48
:1006700000228021204600F004FA0022202120469A
:1006800000F0FFF9FFF79EFF0021BDE810408E202B
:1006900000F0C2B8000801407FB54020009000245F
:1006A0000120144E0290019403946946304600F0F4
:1006B000F3F80025640800222021304600F0E1F91B
:1006C0000220FFF79AFF4021304600F0D5F90128BB
:1006D00001D144F0800401222021304600F0D1F9FC
:1006E0000220FFF78AFF6D1CEDB2082DE2D304B0A3
:1006F000204670BD0008014070B5134D044600222D
:100700008021284600F0BDF900222021284600F073
:10071000B8F90220FFF771FF01228021284600F07E
:10072000B0F90220FFF769FF204600F04BF8FFF711
:10073000B3FF044600228021284600F0A2F90220DF
:10074000FFF75BFF204670BD0008014010B504466E
:100750008120FFF7D1FF0346A079FFF743FF03F0A5
:1007600080010143802000F057F86079FFF73AFFDD
:100770000146822000F050F82079FFF733FF014650
:10078000842000F049F8A078FFF72CFF014686206E
:1007900000F042F86078FFF725FF0146882000F05E
:1007A0003BF8E078FFF71EFF01468A2000F034F89E
:1007B0002078FFF717FF0146BDE810408C2000F0BD
:1007C0002BB8000070B50546FFF7FCFE114E002463
:1007D000E80701D0012200E000224021304600F06D
:1007E00050F90220FFF709FF01222021304600F0D6
:1007F00048F90220FFF701FF00222021304600F0D7
:1008000040F90220FFF7F9FE641C6D08E4B2082CE1
:10081000DED370BD0008014070B5144C0E4605468D
:1008200000228021204600F02CF9002220212046C1
:1008300000F027F90220FFF7E0FE01228021204688
:1008400000F01FF90220FFF7D8FE2846FFF7BAFF95
:100850003046FFF7B7FF00228021204600F011F953
:10086000BDE870400220FFF7C8BE0000000801404C
:100870007047000070B5044600F008F90546601C9A
:1008800002D004480078044400F000F9401BA04264
:10089000FAD370BD080000202DE9F84FDFF8B891B9
:1008A0000024A9F1040B23460F2709F1040AABF138
:1008B000040EC9E00125A5402A40AA427DD1674E19
:1008C000D1F804C0ACEB0608B44532D014DCBCF15E
:1008D000030F3AD009DCBCF1000F2AD0BCF1010FA4
:1008E0001CD0BCF1020F31D11DE0BCF1110F17D0AB
:1008F000BCF1120F2AD119E0B8F5881F19D006DC17
:10090000B8F5803F15D0B8F5801F1FD111E0B8F5BC
:10091000001F0ED0B8F5041F18D10AE0CB6815E00F
:10092000CB681B1D12E0CB6808330FE0CB680C339B
:100930000CE08B682BB1012B4FF0080303D045610D
:1009400004E0042302E0056100E00023FF2A01D84F
:10095000064601E000F104064FEA840501D9A5F13D
:100960002005D6F8008007FA05FC28EA0C0803FAEF
:1009700005F548EA0508C6F800804D68ED0062D527
:10098000374DAE6946F00106AE61AD6924F003064D
:1009900005F001050095334D06EB050CDCF8085019
:1009A000A607360F07FA06F825EA0805DFF8B8802B
:1009B000404503D14FF0000817E044E0DFF8AC8079
:1009C000404502D14FF001080FE0DFF8A480404518
:1009D00002D14FF0020808E0DFF89880404502D1CC
:1009E0004FF0030801E04FF0040808FA06F848EA5F
:1009F0000508CCF808804D68D9F80060ED024D4636
:100A000001D5164300E096432E604D68DAF8006089
:100A1000AD02554601D5164300E096432E604D6861
:100A2000DBF80060AD035D4601D5164300E0964358
:100A30002E604D68DEF80060ED03754601D5164363
:100A400000E096432E60641C0D682A46E5407FF462
:100A500031AFBDE8F88F000008040140000011101C
:100A6000001002400000014000080140000C01405D
:100A700000100140001401408068084000D00120AF
:100A800070470AB1016170470904FBE701488068BB
:100A90007047000008000020024881680278114475
:100AA0008160704708000020074810B5016841F0D8
:100AB00010010160032000F067F80F2000F006F835
:100AC00000F024F8002010BD0020024070B50D4D4C
:100AD00004464FF47A712878B1FBF0F00A490968AE
:100AE000B1FBF0F000F0AEFA48B9102C07D20022AA
:100AF0002146501E00F028F800206C6070BD0120D7
:100B000070BD000008000020140000200C4808B54B
:100B1000816941F001018161816901F00101009168
:100B2000C16941F08051C161C06900F080500090FE
:100B30000448416821F0E06141F00071416008BD66
:100B40000010024000000140F0B40E4B1B680C4640
:100B5000C3F30223C3F10705042D00D90425191D91
:100B6000072901D2002300E0DB1E012606FA05F169
:100B7000491E214099409E40761E16403143F0BCEC
:100B800000F0F9BC0CED00E0064900F0070208682F
:100B90004FF6FF03184040EA0220034A1043086062
:100BA000704700000CED00E00000FA052DE9F04769
:100BB0000F46050061D0434E306800F00700B84290
:100BC00009D2306820F0070038433060306800F008
:100BD0000700B84251D128683B4C810712D5400725
:100BE00003D5606840F4E06060602878000703D5B2
:100BF000606840F4605060606068A96820F0F000B0
:100C0000084360602878C00728D06868012810D0A1
:100C10002168022810D0890700292EDA616821F0A6
:100C2000030101436160FFF731FF804641F28839DB
:100C30000DE021688903EFE78901EDE7FFF726FF63
:100C4000A0EB0801494502D90320BDE8F0876068A0
:100C5000696800F00C00B0EB810FEFD1306800F054
:100C60000700B8420BD9306820F0070038433060E5
:100C7000306800F00700B84201D00120E5E728788D
:100C8000400705D56068E96820F4E06008436060CB
:100C90002878000706D56068296920F4605040EA8A
:100CA000C100606000F018F86168084AC1F30311E0
:100CB000515CC8400649086006480068FFF706FF17
:100CC0000020C2E700200240001002405216000837
:100CD000140000200C0000200E4A51680E4801F05C
:100CE0000C03042B11D0082B0FD10C48C1F3834304
:100CF000C903C05C0AD55168084AC1F34041921E3D
:100D0000515C054A5043B0FBF1F070470449484339
:100D1000704700000010024000127A0042160008DE
:100D200000093D002DE9F84F040070D02078C04D37
:100D3000C00749D06868C0F38100012807D06868FF
:100D4000C0F38100022809D16868C00306D528686D
:100D5000800339D560680028E7D035E06068B0F5D9
:100D6000803F0BD010B1B0F5A02F11D0286820F42F
:100D700080302860286820F4802002E0286840F451
:100D800080302860606890B1FFF780FE06460AE078
:100D9000286840F480202860F0E700BFFFF776FE67
:100DA000801B642873D828688003F7D50CE0FFF710
:100DB0006DFE064605E000BFFFF768FE801B642855
:100DC000F0D828688003F7D420789A4E80074FF037
:100DD00001094FF0000839D5686810F00C0F07D0F2
:100DE0006868C0F38100022809D16868C00306D48E
:100DF0002868800714D52069012808D110E02069EF
:100E0000B0B1C6F80090FFF741FE074605E00AE1E1
:100E1000FFF73CFEC01B0228C4D828688007F7D51E
:100E20002868616920F0F80040EAC10028600DE000
:100E3000C6F80080FFF72AFE074604E0FFF726FE0B
:100E4000C01B022823D828688007F7D42078000721
:100E50002CD57948A169D9B1C0F80090FFF716FEEA
:100E6000074604E0FFF712FEC01B02280FD8686A8D
:100E70008007F7D571484FF4FA510068B0FBF1F0E4
:100E8000009000BF0098411E0091FAD20EE080E071
:100E9000C0F80080FFF7FAFD074604E0FFF7F6FD13
:100EA000C01B022875D8686A8007F7D420784007ED
:100EB00060D5E8690027C00008D4E86940F0805098
:100EC000E861E869012700F0805000905C48016803
:100ED000C90513D40168834641F480710160FFF7AE
:100EE000D5FD824606E000BFFFF7D0FDA0EB0A006B
:100EF00064284ED8DBF80000C005F5D5E06801286D
:100F00000AD008B1052813D0286A20F00100286211
:100F1000286A20F0040002E0286A40F001002862FC
:100F2000E06841F2883B98B1FFF7B0FD82460BE0E4
:100F3000286A40F004002862EEE700BFFFF7A6FD34
:100F4000A0EB0A0159455AD8286A8007F6D50CE06B
:100F5000FFF79CFD824605E0FFF798FDA0EB0A0134
:100F600059454CD8286A8007F6D41FB1E86920F0AB
:100F70008050E861E06988B36968C1F381010229A2
:100F800044D00228C6F8608004D0FFF77FFD0446F5
:100F900038E034E0FFF77AFD074604E0FFF776FD1E
:100FA000C01B02282BD828688001F7D4206AB0F52E
:100FB000803F05D16868A16820F40030084368606C
:100FC000D4E908010843696821F474110843686092
:100FD000C6F86090FFF75AFD044606E025E000BF22
:100FE000FFF754FD001B022809D828688001F7D5B7
:100FF0001BE000BFFFF74AFD001B022802D90320B7
:10100000BDE8F88F28688001F4D40EE00128F7D0FD
:101010006868226A00F48031914204D1616A00F468
:101020007010884201D00120EAE70020E8E70000C4
:10103000001002400000424280044242140000209E
:101040000070004010B5401EB0F1807F01D3012038
:1010500010BD4FF0E02460610F21601700F08BFAA3
:101060000020A06107202061002010BDFEE70000E5
:1010700070B501220E4D940321462846FFF701FD6D
:101080000122560331462846FFF7FBFC00F048F8E2
:10109000002221462846FFF7F4FC00F041F8002228
:1010A00031462846FFF7EDFCBDE8704000F038B847
:1010B0000010014070B50B4D4FF4804400222146D2
:1010C0002846FFF7DEFC012251032846FFF7D9FC32
:1010D00000F026F821462846BDE870400122FFF7BF
:1010E000D0BC00000010014070B50C4C01229103EF
:1010F0002046FFF7C6FC00F013F8012255032946ED
:101100002046FFF7BEFC00F00BF8002229462046DF
:10111000FFF7B7FCBDE8704000F002B800100140D6
:101120000320401EC0B2FCD270470000F0B585B06D
:10113000002000900190029003901E48816941F0C8
:1011400010018161816901F010010491816941F010
:1011500020018161816901F020010491816941F0E0
:10116000040181618069144E00F004004FF4C04412
:101170000490012221463046FFF783FC0F4F0122E5
:10118000E0213846FFF77DFC0094012403256946E1
:1011900030460194CDE90245FFF77EFBE020CDE922
:1011A000000469463846CDE90245FFF775FB05B0F6
:1011B000F0BD000000100240001001400008014096
:1011C000FEE7FEE730B40021084B0A465FF000005E
:1011D00003EBC004401CC0B262548028F8D3491C01
:1011E000C9B20829F2D330BC00F086B8380000201C
:1011F00030B5CC0801F0070301259D40EBB2064D48
:1012000005EBC005C808285C0AB1184302E063EA90
:101210000000C043285530BD3800002010B5002123
:10122000AE2000F02DF90021084600F029F9002138
:10123000102000F025F90021402000F021F90021C4
:10124000812000F01DF90021CF2000F019F90021C4
:10125000A12000F015F90021C82000F011F90021AB
:10126000A62000F00DF90021A82000F009F90021C6
:101270003F2000F005F90021D32000F001F9002102
:10128000084600F0FDF80021D52000F0F9F8002113
:10129000802000F0F5F80021D92000F0F1F80021BD
:1012A000F12000F0EDF80021DA2000F0E9F800214B
:1012B000122000F0E5F80021DB2000F0E1F8002129
:1012C000302000F0DDF80021202000F0D9F80021C6
:1012D000022000F0D5F800218D2000F0D1F8002187
:1012E000142000F0CDF8FFF76DFF0021BDE810409D
:1012F000AF2000F0C5B8000070B5184E002400BF44
:1013000004F1B000C0B2002100F0BAF80021084694
:1013100000F0B6F80021102000F0B2F8FFF7A8FEA8
:10132000782000F0CBF8FFF7DFFE402000F0C6F891
:10133000FFF7DAFE5FF0000506EBC500005D00F088
:10134000BDF8FFF7D1FE6D1CEDB2802DF4D3FFF791
:10135000B1FE641CE4B2082CD2D370BD380000206A
:101360002DE9FC4F1C460E4682468B460190082B09
:101370000DD0600700D0012000EBD4006108484385
:10138000C0B28146203AD0B2009000204BE0062047
:10139000F7E7082C13D00C2C18D0102C1BD0182CCD
:1013A00044D10098234900EBC00000BF01EB80014D
:1013B000002711F80850E80712D00B9A13E00098A4
:1013C0001D4900EB400001EB4001F1E700981B498B
:1013D00000EB4000EAE71A49009801EB0011E7E74B
:1013E0000B9828B3002231465046FFF701FF761CC8
:1013F0007F1C6D08FFB2F6B2082FDCD30AF10100A2
:1014000000F0FF0A082C0AD00199AAEB0100B0EB0A
:10141000540F04D10BF108008A4600F0FF0B08F1CD
:1014200001005E46C0B280464845B2D3BDE8FC8F9D
:101430000122D8E7EE220008621600088A18000888
:10144000FE1C00082DE9F8411E4615468846044654
:10145000079F0BE03346414620460097FFF780FF89
:10146000082E0AD004EB5600C4B26D1C2A78A2F1F3
:1014700020005E28EED9BDE8F881A41DE4B2F4E7AF
:1014800070B50C460546FFF7F3FD782000F016F81E
:10149000FFF72AFE0CB1402000E0002000F00EF81B
:1014A000FFF722FE284600F009F8FFF71DFEBDE811
:1014B0007040FFF7FFBD7047704700002DE9F04115
:1014C000124F002405464FF480487E14280601D5AB
:1014D000012200E0002241463846FFF7D2FAFFF72A
:1014E0001FFE012231463846FFF7CBFAFFF718FE00
:1014F000002231463846FFF7C4FA6806641C050E20
:10150000E4B2082CE2D3BDE8F081000000100140F5
:10151000FFF7C2BA30B58FB028216846FEF76CFFDE
:1015200014210AA8FEF768FF01210804CDE9001084
:101530000024029402250491CDE907504FF4E010F5
:1015400009906846FFF7EEFB08B172B6FEE70F2080
:10155000CDE90A054FF48060CDE90C4002210AA8CC
:101560000E94FFF723FB002801D072B6FEE70FB000
:1015700030BD7047FEE70907090E002804DB00F1C3
:10158000E02080F80014704700F00F0000F1E02028
:1015900080F8141D704730380A2801D201207047A6
:1015A000002070471FB5FFF77FFAFFF7B3FFFFF783
:1015B000BDFDFFF733FEFFF759F8174C1820012542
:1015C000207006206070A570E5700C20207100204E
:1015D0006071A0712046FFF7B9F84FF47A760E4893
:1015E000FFF713F8A078A379627921798DE80F00CD
:1015F0006378227809A11148FEF7EAFD08230F4A13
:10160000182100200095FFF71DFFFFF775FE3046FB
:10161000FFF730F9E3E7000000000020323025300A
:1016200032642D253032642D25303264202530324D
:10163000643A253032643A253032640018000020C4
:10164000010202030405060708090A0B0C0D0E0F20
:101650001010000000000000000001020304060753
:1016600008090000000000000000002F000000003A
:101670000700070000147F147F1400242A7F2A1219
:101680000062640813230036495522500000050308
:10169000000000001C224100000041221C00001438
:1016A000083E08140008083E0808000000A060007A
:1016B000000808080808000060600000002010080A
:1016C0000402003E5149453E0000427F4000004276
:1016D00061514946002141454B31001814127F10D9
:1016E000002745454539003C4A4949300001710908
:1016F000050300364949493600064949291E0000BC
:101700003636000000005636000000081422410062
:101710000014141414140000412214080002015192
:10172000090600324959513E007C1211127C007F9B
:1017300049494936003E41414122007F4141221C36
:10174000007F49494941007F09090901003E41499B
:10175000497A007F0808087F0000417F410000208F
:1017600040413F01007F08142241007F404040403B
:10177000007F020C027F007F0408107F003E414181
:10178000413E007F09090906003E4151215E007F6C
:10179000091929460046494949310001017F0101E3
:1017A000003F4040403F001F2040201F003F403886
:1017B000403F0063140814630007087008070061C5
:1017C0005149454300007F41410000552A552A55A3
:1017D000000041417F00000402010204004040403B
:1017E0004040000001020400002054545478007F5F
:1017F0004844443800384444442000384444487F36
:1018000000385454541800087E0901020018A4A49A
:10181000A47C007F080404780000447D4000004060
:1018200080847D00007F102844000000417F40003C
:10183000007C04180478007C0804047800384444D0
:10184000443800FC242424180018242418FC007CAC
:101850000804040800485454542000043F44402025
:10186000003C4040207C001C2040201C003C4030BC
:10187000403C004428102844001CA0A0A07C004448
:1018800064544C4414141414141400000000000098
:101890000000000000000000FC000000000002004A
:1018A0000000000C020C020000000000000090D0BC
:1018B000BCD0BC900003000300001824FE448C0040
:1018C0000302070201001824D8B04C800003000175
:1018D0000201C038E438E0000102020102020806F9
:1018E00000000000000000000000000000F80402FA
:1018F000000000010204000204F8000000040201DC
:1019000000009060F86090000000010000002020BE
:10191000FC2020000000010000000000000000008A
:101920000806000000002020202020000000000009
:101930000000000000000000000200000000008025
:10194000601C0200040300000000F8040404F80016
:101950000102020201000008FC0000000002030274
:101960000000188444241800030202020200080444
:101970002424D80001020202010040B088FC80004B
:101980000000000302003C242424C40001020202DF
:101990000100F824242CC0000102020201000C0402
:1019A000E41C0400000003000000D8242424D80014
:1019B00001020202010038444444F800000302021C
:1019C0000100000010000000000002000000000004
:1019D00020000000000006000000002050880402E3
:1019E0000000000001029090909090000000000024
:1019F00000000002048850200002010000001804CA
:101A0000C4241800000002000000F804E494F80068
:101A100001020202020000E09CF0800002030000CC
:101A2000030204FC2424D800020302020100F8048B
:101A300004040C0001020202010004FC0404F8008A
:101A400002030202010004FC24740C0002030202DF
:101A5000030004FC24740C00020302000000F008E0
:101A60000444CC4000010202010004FC2020FC04DC
:101A70000203000003020404FC0404000202030247
:101A80000200000404FC040406040403000004FC37
:101A900024D00C0402030200030204FC0400000032
:101AA000020302020203FC3CC03CFC0003000300F2
:101AB000030004FC30C4FC04020302000300F80429
:101AC0000404F80001020202010004FC24241800AE
:101AD000020302000000F8848404F80001020207F7
:101AE000050004FC24649800020302000302182489
:101AF00024448C000302020201000C04FC040C00CC
:101B000000020302000004FC0000FC0400010202C9
:101B10000100047C80E01C040000030000001CE0C5
:101B20003CE01C00000300030000049C609C0400D7
:101B3000020300030200041CE01C04000002030274
:101B400000000C84641C0400020302020300000075
:101B5000FE020200000007040400000E30C0000076
:101B6000000000010200000202FE00000004040761
:101B7000000000040204000000000000000000005B
:101B80000000000008080808080800000200000023
:101B90000000000000000040A0A0C0000001020200
:101BA000030204FC2020C00000030202010000C068
:101BB0002020600000010202020000C02024FC007E
:101BC00000010202030200C0A0A0C0000001020246
:101BD00002000020F8242404000203020200004056
:101BE000A0A0602000070A0A0A0404FC2020C0000C
:101BF0000203020003020020E400000000020302CE
:101C00000000000020E4000008080807000004FCB1
:101C100080E020200203020003020404FC00000014
:101C2000020203020200E020E020C00003000300E3
:101C3000030020E02020C00002030200030200C0D5
:101C40002020C00000010202010020E02020C0008E
:101C5000080F0A02010000C02020E0000001020A73
:101C60000F0820E040202000020302000000006076
:101C7000A0A020000002020203000020F8200000C3
:101C800000000102020020E00020E000000102024A
:101C9000030220E02080602000000301000060803B
:101CA000E0806000000300030000206080602000EE
:101CB00002030003020020E02080602008080701E2
:101CC00000000020A06020000002030202000000CB
:101CD00020DE0200000000070400000000FF0000FA
:101CE0000000000F00000002DE20000000040700DA
:101CF00000000201020404020000000000000000D5
:101D000000000000000000000000000000000000D3
:101D100000F8000000000000003330000000001058
:101D20000C06100C0600000000000000000040C07F
:101D30007840C0784000043F04043F040400007071
:101D400088FC08300000001820FF211E0000F00869
:101D5000F000E018000000211C031E211E0000F00E
:101D60000888700000001E21232419272110101656
:101D70000E00000000000000000000000000000055
:101D800000E01804020000000007182040000002D4
:101D90000418E00000000040201807000000404048
:101DA00080F0804040000202010F010202000000AA
:101DB00000F0000000000101011F0101010000000E
:101DC00000000000000080B0700000000000000073
:101DD00000000000000000010101010101010000FC
:101DE0000000000000000030300000000000000093
:101DF000000080601804006018060100000000E088
:101E000010080810E000000F102020100F00001034
:101E100010F8000000000020203F2020000000708B
:101E20000808088870000030282422213000003083
:101E30000888884830000018202020110E0000007B
:101E4000C02010F8000000070424243F240000F8FC
:101E50000888880808000019212020110E0000E0E1
:101E6000108888180000000F112020110E00003883
:101E70000808C83808000000003F0000000000709B
:101E8000880808887000001C222121221C0000E024
:101E900010080810E0000000312222110F0000009D
:101EA00000C0C00000000000003030000000000052
:101EB00000800000000000008060000000000000C2
:101EC000804020100800000102040810200040405B
:101ED000404040404000040404040404040000089E
:101EE0001020408000000020100804020100007053
:101EF00048080808F0000000003036010000C0303B
:101F0000C828E810E0000718272423140B0000005D
:101F1000C038E0000000203C23020227382008F8E7
:101F2000888888700000203F202020110E00C030DB
:101F3000080808083800071820202010080008F8B2
:101F400008080810E000203F202020100F0008F8AB
:101F50008888E8081000203F20202320180008F877
:101F60008888E8081000203F200003000000C030EF
:101F700008080838000007182020221E020008F870
:101F800008000008F808203F210101213F20000837
:101F900008F8080800000020203F20200000000072
:101FA0000808F8080800C08080807F00000008F85A
:101FB00088C028180800203F20012638200008F893
:101FC000080000000000203F20202020300008F8FA
:101FD000F800F8F80800203F003F003F200008F814
:101FE00030C00008F808203F200007183F00E0102C
:101FF00008080810E0000F10202020100F0008F83B
:1020000008080808F000203F210101010000E0104D
:1020100008080810E0000F18242438504F0008F872
:10202000888888887000203F2000030C30200070D2
:102030008808080838000038202121221C001808D0
:1020400008F8080818000000203F2000000008F8E9
:1020500008000008F808001F202020201F00087832
:10206000880000C83808000007380E010000F80892
:1020700000F80008F800033C0700073C03000818BC
:1020800068808068180820302C03032C3020083822
:10209000C800C83808000000203F200000001008D9
:1020A0000808C83808002038262120201800000021
:1020B00000FE020202000000007F40404000000CD1
:1020C00030C000000000000000010638C00000021F
:1020D0000202FE000000004040407F0000000000BF
:1020E00004020202040000000000000000000000E2
:1020F00000000000000080808080808080800002DE
:1021000002040000000000000000000000000000C9
:102110008080808000000019242222223F2008F8BD
:10212000008080000000003F112020110E00000000
:10213000008080800000000E11202020110000008F
:1021400000808088F800000E112020103F20000041
:10215000808080800000001F222222221300008045
:1021600080F0888888180020203F20200000000090
:10217000808080808000006B94949493600008F8C5
:10218000008080800000203F210000203F20008050
:102190009898000000000020203F20200000000050
:1021A00000809898000000C08080807F000008F8C0
:1021B000000080808000203F24022D302000000895
:1021C00008F8000000000020203F20200000808050
:1021D000808080808000203F20003F20003F808062
:1021E000008080800000203F210000203F20000070
:1021F000808080800000001F202020201F00808021
:1022000000808000000080FFA12020110E0000004F
:10221000008080808000000E112020A0FF80808040
:1022200080008080800020203F21200001000000ED
:1022300080808080800000332424242419000080C2
:1022400080E0808000000000001F202000008080CF
:10225000000000808000001F202020103F20808090
:1022600080000080808000010E3008060100808020
:102270000080008080800F300C030C300F00008045
:102280008000808080000020312E0E312000808070
:1022900080000080808080818E70180601000080A0
:1022A0008080808080000021302C222130000000BE
:1022B0000000807C020200000000003F404000005F
:1022C0000000FF00000000000000FF00000000020E
:1022D000027C800000000040403F0000000000063B
:1022E00001010202040400000000000000000000E0
:1022F00000000000000000000000000000000000DE
:1023000000000000000000000000000000000000CD
:1023100000000000000000F0F0F0000000000000ED
:10232000000000017F010000000000000000001C10
:102330001C1C0000000000008060301C8C60301C01
:102340000C00000000000000000000000000000081
:1023500000000000000000000000000000E000009D
:10236000000000E000000086E69F86868686E69FE5
:10237000860000011F01010101011F010100000091
:1023800080C06020F820E0C00000000003070C18A7
:10239000FF70E18100000000070F10107F100F0791
:1023A00000008060206080000000E02000000F300E
:1023B00020309F70DC371030C0000000100E03008A
:1023C0000718101807000000C02020E0C00000001F
:1023D000000080E01F38E88703C43C040000070FBA
:1023E0001810100B070D1010080000808C4C3800DE
:1023F00000000000000000000000000000000000DD
:1024000000000000000000000000000000000000CC
:102410000000000080E0300804000000000000FE22
:10242000FF0100000000000000000000030F182062
:10243000400000040830E0800000000000000000C0
:10244000000001FFFE0000000000004020180F0304
:10245000000000000000000000000000C0000000BC
:102460000000004266663C18FF183C6666420000A9
:102470000000000003000000000000000000000059
:10248000800000000000001010101010FF1010104D
:102490001010000000000000030000000000000019
:1024A000000000000000000000000000000000002C
:1024B00000000000000000808C4C3800000000008C
:1024C00000000000000000000000000000000010FC
:1024D000101010101010101010000000000000006C
:1024E00000000000000000000000000000000000EC
:1024F00000000000000000000000000000000000DC
:102500001C1C1C0000000000000000000000000077
:102510000000E0380C000000000080701C03000088
:1025200000000060380E0100000000000000000004
:1025300080C060202060C080000000FEFF0100001D
:10254000000001FFFE000001070E181010180E0712
:1025500001000000808080C0E0000000000000005A
:10256000000000FFFF000000000000001010101F1E
:102570001F10101000000080402020202060C0802C
:10258000000000030300804020381F070000001CEB
:102590001A1918181818181F00000080C0202020D1
:1025A00060C080000000000303001010182FE780B7
:1025B000000000070F10101010180F070000000097
:1025C00000000000C0E0F000000000C0B08886817C
:1025D00080FFFF808000000000000010101F1F100F
:1025E00010000000E060606060606060000000005B
:1025F0003F1008080818F0E0000000070B1010104A
:10260000101C0F030000000080C040202020E0C00C
:10261000000000FCFF211008080818F0E00000018D
:10262000070C18101010080F03000000C0E06060D5
:10263000606060E06000000003000000E018070038
:10264000000000000000001F1F00000000000080CC
:10265000C0602020202060C080000087EF2C181868
:10266000303068CF830000070F0810101010180FCB
:1026700007000000C0C020202020C0800000001FF4
:102680003F604040402010FFFE0000000C1C101076
:1026900010080F0300000000000000000000000010
:1026A000000000000000000E0E0E00000000000000
:1026B0000000001C1C1C00000000000000000000C6
:1026C00000000000000000000000000C0C000000F2
:1026D000000000000000005838000000000000006A
:1026E00000000000008040201000000010284482FC
:1026F00001000000000000000000000001020408CA
:102700001000000000000000000000000000008435
:102710008484848484848484840000000000000015
:1027200000000000000000001020408000000000B9
:10273000000000000000000001824428100000009A
:102740001008040201000000000000C0202010104A
:10275000101030E0C0000003030000F010080C0768
:102760000300000000001C1C1C0000000000000012
:1027700000C0406020202040C00000FCFF01F00E9F
:1027800003C1FE03807F0001070E0811111011091B
:1027900004020000000080E0E000000000000000F3
:1027A000807C4340477FF880000010181F10000015
:1027B0000000131F1C1020E0E02020202060C080BB
:1027C000000000FFFF10101010182FE78000101FEE
:1027D0001F1010101010180F0700000080C04020BC
:1027E00020202060E00000FCFF010000000000004D
:1027F00001000001070E181010100804030020E06B
:10280000E02020202040C080000000FFFF000000EA
:10281000000001FFFE00101F1F10101018080E0707
:10282000010020E0E020202020202060800000FF28
:10283000FF101010107C00000000101F1F1010105F
:1028400010101018060020E0E020202020206060FA
:10285000800000FFFF101010107C00000100101F0E
:102860001F100000000000000000000080C0602079
:10287000202040E0000000FCFF0100004040C0C1FB
:1028800040400001070E181010100F0F000020E04C
:10289000E0200000000020E0E02000FFFF1010100A
:1028A000101010FFFF00101F1F1000000000101F6D
:1028B0001F100000202020E0E02020200000000069
:1028C000000000FFFF000000000000001010101FBB
:1028D0001F101010000000000000202020E0E02069
:1028E000202000000000000000FFFF00000000604A
:1028F000E0808080C07F3F00000020E0E0200000FA
:1029000020A06020200000FFFF30187CE3C0000002
:102910000000101F1F10000001131F1C181020E0E2
:10292000E020000000000000000000FFFF000000A9
:10293000000000000000101F1F10101010101018D1
:10294000060020E0E0E000000000E0E0E02000FF02
:10295000013FFEC0E01E01FFFF00101F1000031F1B
:102960000300101F1F1020E0E0C000000000002046
:10297000E02000FF0003071C78E08000FF00101F2C
:10298000100000000000030F1F00000080C0602046
:102990002060C080000000FEFF010000000000FF7A
:1029A000FE000001070E181010180C07010020E0AF
:1029B000E0202020202060C0800000FFFF20202099
:1029C0002020301F0F00101F1F100000000000000B
:1029D0000000000080C060202060C080000000FE79
:1029E000FF010000000000FFFE000001070E1111B2
:1029F000133C7C67210020E0E0202020202060C0E4
:102A0000800000FFFF101030F0D0080F0700101FEB
:102A10001F10000000030F1C10100080C060202059
:102A200020204040E00000070F0C1818303060E014
:102A30008100001F0C0810101010180F0700806094
:102A4000202020E0E020202060800100000000FF26
:102A5000FF000000000100000000101F1F10000018
:102A6000000020E0E020000000000020E02000FF47
:102A7000FF00000000000000FF0000070F1810100A
:102A80001010100807002060E0E02000000020E0A7
:102A900060200000077FF88000807C0300000000B9
:102AA0000000071F1C070000000020E0E02000E0FD
:102AB000E0200020E0200007FFF8E01FFFFCE01FFF
:102AC00000000000031F0300011F0300000000209E
:102AD00060E0A0000020E0602000000000038F7C88
:102AE000F8C6010000000010181E130001171F187F
:102AF00010002060E0E02000000020E060200000E6
:102B000001073EF8E0180700000000000010101F49
:102B10001F101000000000806020202020A0E0E0B6
:102B2000200000000000C0F03E0F03000000001075
:102B30001C1F17101010101806000000000000FCE9
:102B40000404040404000000000000FF0000000072
:102B5000000000000000007F4040404040000000B6
:102B600010E0000000000000000000000000031C56
:102B700060800000000000000000000000030C70F6
:102B8000800000000404040404FC000000000000B5
:102B90000000000000FF0000000000004040404036
:102BA000407F0000000000000010080C040C08101A
:102BB0000000000000000000000000000000000015
:102BC0000000000000000000000000000000000005
:102BD00000000000000000000000000000000000F5
:102BE00000008080808080808080808080800000E5
:102BF00000040408080000000000000000000000BD
:102C000000000000000000000000000000000000C4
:102C100000000000000000000000000000000000B4
:102C200098D844642424FCF80000000F1F181010EA
:102C300010081F1F10180020E0F000000000000026
:102C400000000000FFFF180804040CF8F00000006A
:102C50001F0F18101010180F0300000000000000D4
:102C600000000000000000E0F8180404043C3800F4
:102C7000000000030F0C10101010080600000000E8
:102C8000000000000020E0F0000000E0F81C040458
:102C90000408FFFF000000030F18101010081F0F9A
:102CA000080000000000000000000000000000001C
:102CB000E0F8484444444C7870000000030F0C18BE
:102CC0001010100804000000000080C0602020E008
:102CD000C00000040404FFFF04040404000000001A
:102CE00010101F1F10101000000000000000000056
:102CF000000000000000000070F88C04048CF874E0
:102D0000040C007076CF8D8D8D89C87870000020FE
:102D1000E0F000000000000000000000FFFF0804D9
:102D20000404FCF8000000101F1F100000101F1FFB
:102D300010000000000000606000000000000000C3
:102D4000040404FCFC000000000000001010101F30
:102D50001F10101000000000000000000060600064
:102D6000000000000000040404FCFC00000000005F
:102D7000C0C08080C07F3F0000000020E0F0000065
:102D80000000000000000000FFFF80C0F41C0404ED
:102D9000000000101F1F1100031F1C101000000076
:102DA000202020E0F000000000000000000000FFF4
:102DB000FF000000000000001010101F1F10101076
:102DC000000000000000000000000000000004FC03
:102DD000FC0804FCFC0804FCFC00101F1F10001F72
:102DE0001F10001F1F100000000000000000000066
:102DF00000000004FCFC08080404FCF800000010BB
:102E00001F1F100000101F1F100000000000000016
:102E100000000000000000E0F0180C04040C18F0A2
:102E2000E00000030F0C101010100C0F0300000046
:102E3000000000000000000000000004FCFC08048A
:102E400004040CF8F0000080FFFF889010101C0FA5
:102E5000030000000000000000000000000000E08F
:102E6000F81C04040408F8FC000000030F181010FC
:102E70009088FFFF800000000000000000000000BC
:102E80000000040404FCFC100804040C0C001010E6
:102E9000101F1F10101000000000000000000000B4
:102EA00000000000000000003078CCC48484840C52
:102EB0001C0000001E1810101011190F0600000051
:102EC000000000C000000000000000040404FFFF38
:102ED000040404000000000000000F1F1010100C7C
:102EE00000000000000000000000000000000004DE
:102EF000FCFE00000004FCFE000000000F1F181084
:102F000010081F0F08000000000000000000000073
:102F1000000000040C3CFCC40000C43C0C04000095
:102F20000000010F1E0E0100000000000000000064
:102F3000000000000000043CFCC400E47CFC848031
:102F40007C040000071F070000071F0700000000A7
:102F5000000000000000000000000004041C7CE4ED
:102F6000C0341C0404000010101C1601131F1C1890
:102F7000100000000000000000000000000000043D
:102F80000C3CFCC400C43C0404000000C080C137F9
:102F90000E01000000000000000000000000000022
:102FA000000000001C0404C4F47C1C0400000000A9
:102FB000101C1F17111010180E0000000000000058
:102FC00000F80C04000000000000001028EF0000D2
:102FD0000000000000000000003F60400000000012
:102FE00000000000FF0000000000000000000000E2
:102FF000FF0000000000000000000000FF000000D3
:1030000000000000040CF8000000000000000000B8
:103010000000EF28100000000000000040603F00AA
:103020000000000000000018060202040810202022
:103030003008000000000000000000000000000058
:103040000000000000000000000004000008000074
:103050000000000000020001000010007C300008A9
:10306000000000201800000028010008943000082B
:1030700018000020000B00004401000800000000C0
:10308000000000000100000010000000000000002F
:0430900000127A00B0
:04000005080000ED02
:00000001FF
